S012000054696D657220546573742E7372656351
S113000070240020510200004D0200004D02000047
S113001000000000000000000000000000000000DC
S11300200000000000000000000000004D0200007D
S113003000000000000000004D0200004D0200001E
S11300404D0200004D0200004D0200004D02000070
S11300504D0200004D0200004D0200004D02000060
S11300604D0200004D0200004D0200004D02000050
S11300704D0200004D0200004D0200004D02000040
S11300804D0200004D0200004D0200002503000057
S11300904D0200004D0200004D0200004D02000020
S11300A04D0200004D0200004D0200004D02000010
S11300B00000000010B5064C2378002B07D1054B37
S11300C0002B02D0044800E000BF0123237010BDC0
S11300D02C04002000000000AC050000084B10B503
S11300E0002B03D00749084800E000BF0748036815
S11300F0002B00D110BD064B002BFBD09847F9E72D
S11301000000000030040020AC050000AC05000035
S113011000000000164B196A164A0A401A62196A4E
S113012002220A431A62124BDB681B07FBD5104BF1
S1130130114A9A829A8A02210A439A820C4BDB68FA
S11301409B07FBD50D4B0422FF329A600C4A5A6080
S11301500A4B5B78DB09FBD1084B812252009A6081
S1130160084A5A60054B5B78DB09FBD17047C046EF
S113017000080040FFFCFFFF0C050000000C0040DD
S113018003060100020501008422D201264B5A8095
S113019026494A681E239A431C3B13434B60244B55
S11301A0DB68DB06FBD50222214B9A84204BDB68FB
S11301B0DB06FBD51F4A1E4BDA621D4BDB68DB06F0
S11301C0FBD51D4B1B681A498A6A9B0E9B021B4870
S11301D0024013438B62164BDB68DB06FBD5144AE3
S11301E0938C17490B439384114BDB681B0613D480
S11301F00123002BF8D10C4B802252009A60114A43
S11302005A60094B5B78DB09FBD10F4B00221A7251
S11302105A729A72DA727047054BDB685B0601D436
S11302200123E6E70023E4E7000C0040004000411E
S113023000080040B905FF7D24608000FF03FFFF34
S1130240060800000007030000040040FEE7000069
S1130250F8B5234A234B9A4209D0224B204A03E0A3
S113026011681960043304321F498B42F8D31F4BC1
S113027002E000221A6004331D4A9342F9D31D4A56
S1130280FF211D4B8B439360FD3990235B001B4A78
S1130290D1501B4AD3780325AB4302242343D370A4
S11302A0D3780C27BB4308263343D370154B987B74
S11302B030229043202210439873997BB9433143F1
S11302C099739A7BAA4322439A730F4A51688023F5
S11302D00B4353600D4B98470D4B9847FEE7C046C0
S11302E0AC050000000000202C0400202C04002099
S11302F06C04002000ED00E00000000000700041EC
S1130300005000410048004100400041E503000066
S11303105503000080221203014B1A607047C04647
S113032000E100E0074B9B7BDB060AD51022064B5D
S11303301A700022054B1A808021C9059C23044AA7
S1130340D1507047003000420E300042103000425D
S11303500044004110B5074B9847074B9847074B9B
S11303609847074B98478021C9058823054AD150EF
S1130370FEE7C04615010000890100008903000062
S11303801503000000440041104A114B5A80104BE1
S11303905B78DB09FBD10F4A116880235B010B43B7
S11303A013600D4AC0239B00138010210B4B19705E
S11303B0FA2189000A4B1980138802210B439BB24E
S11303C01380054BDB7BDB09FBD170471C4300002A
S11303D0000C004020040040003000420D30004278
S11303E01830004270B50D4E0D4D0024AD1BAD10FC
S11303F005D0A300F35801349847A542F9D100F081
S1130400C3F8084E084D0024AD1BAD1005D0A30061
S1130410F35801349847A542F9D170BD9405000002
S113042094050000940500009C050000034B10B5E2
S1130430002B02D0024800F005F810BD00000000B7
S11304405504000010B5010000230022002000F034
S11304501FF810BD70B5094B094CE41AA41009D05B
S1130460084AA518AD00ED182B68013C9847043DD7
S1130470002CF9D100F092F870BDC046A805000028
S1130480AC050000FFFFFF3F7047C0467047C04601
S1130490F0B54E464546DE465746E0B5364D83B088
S11304A00600286898460F009146FFF7EDFF334B8E
S11304B01C68A4235B00E058002852D043681F2B1B
S11304C013DC5A1C0192002E28D1019A02339B009E
S11304D042601F502868FFF7D9FF002003B03CBCDE
S11304E090469946A246AB46F0BD254B002B3DD025
S11304F0C820400000E000BF002837D0A422002319
S11305005200A15843600160A0504032835004322D
S11305108350013301930023002ED6D09A009246D3
S113052082444A46882154466250C422520091466D
S113053081444A468739994012688B460A43944657
S11305404A4661461160842241465200A150022E5F
S1130550BBD102005C468D32FF3211680C4314603B
S1130560B3E720004D30FF30E050A7E72868FFF7DD
S11305708DFF01204042B1E72804002084050000DB
S11305800000000000000020F8B5C046F8BC08BC1C
S11305909E4670472D040000DD000000F8B5C046FB
S10F05A0F8BC08BC9E467047B500000083
S11305AC00000000EC02002054030020BC030020D7
S11305BC000000000000000000000000000000002B
S11305CC000000000000000000000000000000001B
S11305DC000000000000000000000000000000000B
S11305EC00000000000000000000000000000000FB
S11305FC00000000000000000000000000000000EB
S113060C00000000000000000000000000000000DA
S113061C00000000000000000000000000000000CA
S113062C00000000000000000000000000000000BA
S113063C00000000000000000000000000000000AA
S113064C0000000000000000010000000000000099
S113065C0E33CDAB34126DE6ECDE05000B0000005E
S113066C000000000000000000000000000000007A
S113067C000000000000000000000000000000006A
S113068C000000000000000000000000000000005A
S113069C000000000000000000000000000000004A
S10F09CC000000000000000048040020AF
S9030000FC
